:020000040800F2
:100000000000022099210008E1210008E1210008F8
:10001000E1210008E1210008E121000800000000C2
:10002000000000000000000000000000E1210008C6
:10003000E121000800000000E1210008E1210008A2
:10004000E1210008E1210008E1210008E121000888
:10005000E1210008E1210008E1210008E121000878
:10006000E1210008E1210008E1210008E121000868
:10007000E1210008E1210008E1210008E121000858
:10008000E1210008E1210008E1210008E121000848
:10009000E1210008E1210008E1210008E121000838
:1000A000E1210008E1210008E1210008E121000828
:1000B000E1210008E1210008E1210008E121000818
:1000C000E1210008E1210008E1210008E121000808
:1000D000E1210008E1210008E1210008E1210008F8
:1000E000E1210008E1210008E1210008E1210008E8
:1000F000E1210008E1210008E1210008E1210008D8
:10010000E1210008E1210008E1210008E1210008C7
:10011000E1210008E1210008E1210008E1210008B7
:10012000E1210008E1210008E1210008E1210008A7
:10013000E1210008E1210008E1210008E121000897
:10014000E1210008E1210008E1210008E121000887
:10015000E1210008E1210008E1210008E121000877
:10016000E1210008E1210008E1210008E121000867
:10017000E1210008E1210008E1210008E121000857
:08018000E1210008E121000863
:1001880010B5054C237833B9044B13B10448AFF3C9
:1001980000800123237010BD5404002000000000DB
:1001A8001023000808B5034B1BB103490348AFF3FC
:1001B800008008BD0000000058040020102300083B
:1001C80080B500AF164BD3F88830154A43F4700356
:1001D800C2F88830134B1B68124A43F001031360BE
:1001E800104B00229A600F4B1B680E4A23F0847351
:1001F80023F4803313600B4B0B4A5A60094B1B687E
:10020800084A23F480231360064B0022DA6000F0CA
:100218008FF8034B4FF000629A6000BF80BD00BFAB
:1002280000ED00E0003802401030002480B487B0B0
:1002380000AF00233B6100237B610223FB600023A6
:10024800BB6002237B60354B9B6803F00C033B616A
:100258003B69082B11D03B69082B44D83B69002B1C
:1002680003D03B69042B04D03DE02D4B2D4A1A6086
:100278003DE02B4B2C4A1A6039E0284B5B689B0DFC
:1002880003F00103BB60254B5B6803F03F037B6011
:10029800BB68002B0CD0244A7B68B2FBF3F31F4ADF
:1002A80052689209C2F3080202FB03F37B610BE078
:1002B8001C4A7B68B2FBF3F3184A52689209C2F3EE
:1002C800080202FB03F37B61144B5B681B0C03F011
:1002D800030301335B00FB607A69FB68B2FBF3F34D
:1002E8000F4A136003E00E4B0E4A1A6000BF0B4B17
:1002F8009B681B0903F00F030C4AD35CDBB23B611C
:10030800074B1A683B6922FA03F3054A136000BFDA
:100318001C37BD465DF8047B704700BF00380240BB
:10032800000000200024F40000127A0004000020DD
:1003380080B483B000AF00237B6000233B60364B62
:100348001B68354A43F480331360334B1B6803F44E
:1003580000333B607B6801337B603B68002B03D133
:100368007B68B3F5A04FF0D12B4B1B6803F4003327
:10037800002B02D001233B6001E000233B603B6877
:10038800012B42D1244B1B6C234A43F08053136446
:10039800224B1B68214A43F4404313601E4B1E4AFC
:1003A8009B6893601C4B9B681B4A43F40043936013
:1003B800194B9B68184A43F4A0539360164B184A8C
:1003C8005A60154B1B68144A43F08073136000BFD2
:1003D800114B1B6803F00073002BF9D0114B40F24E
:1003E80005621A600C4B9B680B4A23F00303936069
:1003F800094B9B68084A43F00203936000BF064B11
:100408009B6803F00C03082BF9D100BF0C37BD46DD
:100418005DF8047B704700BF003802400070004060
:1004280019544007003C024080B582B000AF7860A4
:100438007B684B4A934208D10121012000F0C2FF9A
:100448000021012000F0BEFF86E07B68454A934208
:1004580008D10121022000F0B5FF0021022000F0A0
:10046800B1FF79E07B68404A934208D1012104201A
:1004780000F0A8FF0021042000F0A4FF6CE07B68D6
:100488003A4A934208D10121082000F09BFF00213D
:10049800082000F097FF5FE07B68354A934208D157
:1004A8000121102000F08EFF0021102000F08AFFAB
:1004B80052E07B682F4A934208D10121202000F0A6
:1004C80081FF0021202000F07DFF45E07B682A4A5B
:1004D800934208D10121402000F074FF0021402000
:1004E80000F070FF38E07B68244A934208D101216C
:1004F800802000F067FF0021802000F063FF2BE0E0
:100508007B681F4A93420AD101214FF4807000F0A2
:1005180059FF00214FF4807000F054FF1CE07B6805
:10052800184A93420AD101214FF4007000F04AFFA3
:1005380000214FF4007000F045FF0DE07B68124A7F
:10054800934209D101214FF4806000F03BFF002164
:100558004FF4806000F036FF00BF0837BD4680BD0D
:10056800000002400004024000080240000C024063
:10057800001002400014024000180240001C024013
:1005880000200240002402400028024080B487B0C6
:1005980000AF7860396000237B6100233B61002352
:1005A800FB6000237B6176E001227B6902FA03F39A
:1005B8003B613B681B683A691340FB60FA683B691A
:1005C8009A4265D17B681A687B695B00032101FA4E
:1005D80003F3DB431A407B681A607B681A683B6840
:1005E8001B7919467B695B0001FA03F31A437B68A0
:1005F8001A603B681B79012B03D03B681B79022BDF
:100608002ED17B689A687B695B00032101FA03F3AA
:10061800DB431A407B689A607B689A683B685B7921
:1006280019467B695B0001FA03F31A437B689A60F9
:100638007B685A687B699BB2194601238B40DB4370
:100648001A407B685A607B685B683A689279114601
:100658007A6992B201FA02F292B21A437B685A603E
:100668007B68DA687B699BB25B00032101FA03F3BC
:10067800DB431A407B68DA607B68DA683B68DB79C1
:1006880019467B695B0001FA03F31A437B68DA6059
:100698007B6901337B617B690F2B85D900BF00BF64
:1006A8001C37BD465DF8047B704780B483B000AF4B
:1006B80078607B684FF6FF721A607B6800221A71B7
:1006C8007B6800225A717B6800229A717B6800223D
:1006D800DA7100BF0C37BD465DF8047B704780B403
:1006E80085B000AF78600B467B804FF48033FB60A9
:1006F8007A88FB681343FB60FA687B68DA617A885A
:100708007B68DA61FA687B68DA617B68DB69FB60C1
:100718007B68DB69FB6000BF1437BD465DF8047B6E
:10072800704780B485B000AF78600B467B800023AB
:10073800FB737B681A697B881340002B02D0012366
:10074800FB7301E00023FB73FB7B18461437BD469F
:100758005DF8047B704780B483B000AF78607B6835
:100768001B699BB218460C37BD465DF8047B704781
:1007780080B485B000AF78600B467B800023FB73A4
:100788007B685A697B881340002B02D00123FB73D6
:1007980001E00023FB73FB7B18461437BD465DF868
:1007A800047B704780B483B000AF78607B685B6976
:1007B8009BB218460C37BD465DF8047B704780B481
:1007C80083B000AF78600B467B807B687A881A8399
:1007D80000BF0C37BD465DF8047B704780B483B01A
:1007E80000AF78600B467B807B687A885A8300BFAD
:1007F8000C37BD465DF8047B704780B483B000AF0A
:1008080078600B467B8013467B707B78002B03D087
:100818007B687A881A8302E07B687A885A8300BFEB
:100828000C37BD465DF8047B704780B483B000AFD9
:1008380078600B467B807A887B685A6100BF0C37EA
:10084800BD465DF8047B704780B483B000AF786024
:100858000B467B807B685A697B885A407B685A6163
:1008680000BF0C37BD465DF8047B704780B485B087
:1008780000AF78600B467B8013467B700023FB60DB
:100888000023BB607A787B8803F007039B0002FA99
:1008980003F3FB607B88DB089BB21A467B6808324F
:1008A80053F822207B8803F007039B000F2101FAED
:1008B80003F3DB437988C90889B2084602EA0301D1
:1008C8007B6800F1080243F822107B88DB089BB2A2
:1008D8001A467B68083253F82230FA681343BB6023
:1008E8007B88DB089BB21A467B680832B96843F8F4
:1008F800221000BF1437BD465DF8047B704700BF67
:1009080080B588B000AF0121012000F097FF0121D8
:100918004FF4805000F036FD0121012000F0B2FCB8
:100928000121022000F0AEFC02233B7202237B72FD
:100938000023BB720123FB7220237B603B1D1946F9
:100948002C48FFF723FE80237B603B1D194629486E
:10095800FFF71CFE10237B603B1D19462648FFF756
:1009680015FE10237B6000233B720123FB720023DA
:10097800BB723B1D19461F48FFF708FE05220421DC
:100988001C48FFF773FF052205211A48FFF76EFF81
:10099800052204211848FFF769FF05220721154899
:1009A800FFF764FF154800F09DFF0023FB8100233B
:1009B800BB8108233B8300237B8300233B820223E4
:1009C8007B820023BB824FF40073FB8207F10C0388
:1009D80019460A4800F0F4FF4FF44041074801F077
:1009E800BAF90121054801F05AF900BF2037BD4680
:1009F80080BD00BF000002400004024000300140FA
:100A080080B584B000AF786010211848FFF789FEE0
:100A18000346002B21D1164B1B780133DAB2144B55
:100A28001A70134B1B78FF2B02D1114B00221A703E
:100A38000121032000F002FF786801F05DFA034607
:100A4800FB810B4B1B789BB21946786801F061FA61
:100A58000221786801F035FB04E00021032000F052
:100A6800EDFE00BF1037BD4680BD00BF000002404C
:100A78007004002080B584B000AF7860102112485F
:100A8800FFF74FFE0346002B17D10121786801F0CC
:100A9800FCFA0346002B10D0786801F02DFA0346C3
:100AA800FB81FB89BC2B04D10121042000F0C6FE88
:100AB80003E00021042000F0C1FEFB89DBB21846E8
:100AC8001037BD4680BD00BF0000024080B400AFB3
:100AD800164B1B68154A43F001031360134B0022A1
:100AE8009A60124B1B68114A23F0A85323F4102371
:100AF80013600E4B0E4A5A600C4B0E4AC3F8842002
:100B08000A4B0D4AC3F88820084B1B68074A23F490
:100B180080231360054B0022DA60044B0022C3F8DF
:100B28008C2000BFBD465DF8047B7047003802404A
:100B380010300024003000200030002480B483B03E
:100B480000AF0346FB71064B00221A70044AFB797A
:100B5800137000BF0C37BD465DF8047B704700BFBB
:100B68000238024080B582B000AF00233B6000230A
:100B7800FB710023BB71312000F0A8FD0346BB7157
:100B88003B6801333B603B68B3F5A04F02D0BB79AB
:100B9800002BF0D0312000F099FD0346002B02D045
:100BA8000123FB7101E00023FB71FB79184608372C
:100BB800BD4680BD80B485B000AF0346FB710023FD
:100BC800FB600A4B1B68FB60FB6823F0F803FB60C3
:100BD800FB79DB00FA681343FB60044AFB68136087
:100BE80000BF1437BD465DF8047B704700380240EB
:100BF80080B483B000AF0346FB71044AFB791360ED
:100C080000BF0C37BD465DF8047B704700004742C3
:100C180080B483B000AF0346FB710D4B00221A70FD
:100C28000B4B00221A70FB79012B02D0042B04D045
:100C380007E0074B01221A7003E0054B05221A70E2
:100C480000BF00BF0C37BD465DF8047B704700BF8E
:100C58007038024080B483B000AF0346FB71044A89
:100C6800FB79136000BF0C37BD465DF8047B704705
:100C7800800E474280B485B000AFF860B9607A60F2
:100C88003B607B689A01BB681A433B685B08013B81
:100C98001B041A43FB681A43BB691B060449134328
:100CA8004B6000BF1437BD465DF8047B704700BF3A
:100CB8000038024080B483B000AF0346FB71044A99
:100CC800FB79136000BF0C37BD465DF8047B7047A5
:100CD8006000474280B483B000AF786039607B68B9
:100CE8009A013B681B0705491343C1F8843000BFCC
:100CF8000C37BD465DF8047B704700BF00380240E2
:100D080080B483B000AF0346FB71044AFB791360DB
:100D180000BF0C37BD465DF8047B7047680047424A
:100D280080B485B000AFF860B9607A60FB689A015A
:100D3800BB681B061A437B681B0705491343C1F8A8
:100D4800883000BF1437BD465DF8047B704700BF8C
:100D58000038024080B483B000AF0346FB71044AF8
:100D6800FB79136000BF0C37BD465DF8047B704704
:100D78007000474280B483B000AF0346FB71044A59
:100D8800FB79136000BF0C37BD465DF8047B7047E4
:100D98004C00474280B485B000AF786039600023CA
:100DA800FB600B4B9B68FB60FB6823F0EC63FB600C
:100DB8007A683B681343FA681343FB60044AFB688C
:100DC800936000BF1437BD465DF8047B704700BFD1
:100DD8000038024080B485B000AF786039600023E5
:100DE800FB600B4B9B68FB60FB6823F07843FB6060
:100DF8007A683B681343FA681343FB60044AFB684C
:100E0800936000BF1437BD465DF8047B704700BF90
:100E18000038024080B485B000AF78600023FB60E2
:100E2800094B9B68FB60FB6823F00303FB60FA68CF
:100E38007B681343FB60044AFB68936000BF143768
:100E4800BD465DF8047B70470038024080B400AFAF
:100E5800054B9B68DBB203F00C03DBB21846BD46BA
:100E68005DF8047B704700BF0038024080B485B04D
:100E780000AF78600023FB60094B9B68FB60FB6850
:100E880023F0F003FB60FA687B681343FB60044AB5
:100E9800FB68936000BF1437BD465DF8047B70475C
:100EA8000038024080B485B000AF78600023FB6052
:100EB800094B9B68FB60FB6823F4E053FB60FA680E
:100EC8007B681343FB60044AFB68936000BF1437D8
:100ED800BD465DF8047B70470038024080B485B099
:100EE80000AF78600023FB600A4B9B68FB60FB68DF
:100EF80023F46043FB607B68DB00FA681343FB6004
:100F0800044AFB68936000BF1437BD465DF8047B54
:100F1800704700BF0038024080B489B000AF7860E5
:100F28000023BB6100237B610023FB6102233B613B
:100F38000023FB600223BB604A4B9B6803F00C0351
:100F4800BB61BB69082B11D0BB69082B44D8BB69AE
:100F5800002B03D0BB69042B04D03DE07B68424AD8
:100F68001A603DE07B68414A1A6039E03D4B5B6896
:100F78009B0D03F00103FB603A4B5B6803F03F03F2
:100F8800BB60FB68002B0CD0384ABB68B2FBF3F39C
:100F9800344A52689209C2F3080202FB03F3FB6168
:100FA8000BE0314ABB68B2FBF3F32E4A5268920950
:100FB800C2F3080202FB03F3FB612A4B5B681B0CBC
:100FC80003F0030301335B003B61FA693B69B2FB41
:100FD800F3F27B681A6003E07B68234A1A6000BF5B
:100FE800204B9B6803F0F003BB61BB691B09BB6125
:100FF8001F4ABB6913441B78DBB27B617B681A68A4
:101008007B69DA407B685A60164B9B6803F4E053AF
:10101800BB61BB699B0ABB61154ABB6913441B785A
:10102800DBB27B617B685A687B69DA407B689A60CF
:101038000C4B9B6803F46043BB61BB695B0BBB61F2
:101048000B4ABB6913441B78DBB27B617B685A6827
:101058007B69DA407B68DA6000BF2437BD465DF8FB
:10106800047B7047003802400024F40000127A0024
:101078001400002080B485B000AF78600023FB60C6
:101088007B6803F44073B3F5407F11D10F4B9B6825
:10109800FB60FB6823F4F813FB607B6823F0704364
:1010A80023F44073FA681343FB60084AFB689360B3
:1010B800064B1A6F7B68C3F30B03044913430B6792
:1010C80000BF1437BD465DF8047B70470038024006
:1010D80080B483B000AF0346FB71044AFB79136008
:1010E80000BF0C37BD465DF8047B70473C0E474295
:1010F80080B483B000AF0346FB71044AFB791360E8
:1011080000BF0C37BD465DF8047B7047400E474270
:1011180080B483B000AF7860044A7B68136000BF76
:101128000C37BD465DF8047B704700BF5C01474241
:1011380080B485B000AF78600023FB600A4BD3F819
:101148008C30FB60FB6823F44013FB60FA687B6813
:101158001343FB60044AFB68C2F88C3000BF1437A5
:10116800BD465DF8047B70470038024080B485B006
:1011780000AF78600023FB600A4BD3F88C30FB602B
:10118800FB6823F44003FB60FA687B681343FB6049
:10119800044AFB68C2F88C3000BF1437BD465DF8BE
:1011A800047B70470038024080B485B000AF786097
:1011B8000023FB600B4BD3F88C30FB60FB6823F0FB
:1011C8001F03FB607B68013BFA681343FB60054A19
:1011D800FB68C2F88C3000BF1437BD465DF8047B4D
:1011E800704700BF0038024080B485B000AF786017
:1011F8000023FB600B4BD3F88C30FB60FB6823F4B7
:10120800F853FB607B68013B1B02FA681343FB60E1
:10121800044AFB68C2F88C3000BF1437BD465DF83D
:10122800047B70470038024080B485B000AF786016
:101238000023FB600A4BD3F88C30FB60FB6823F477
:101248004033FB60FA687B681343FB60044AFB6821
:10125800C2F88C3000BF1437BD465DF8047B704778
:101268000038024080B483B000AF7860044A7B68DD
:10127800136000BF0C37BD465DF8047B704700BFA4
:10128800E011474280B483B000AF78600B46FB7032
:10129800FB78002B06D00A4B1A6B09497B6813436D
:1012A8000B6306E0064B1A6B7B68DB43044913406B
:1012B8000B6300BF0C37BD465DF8047B704700BF69
:1012C8000038024080B483B000AF78600B46FB70F2
:1012D800FB78002B06D00A4B5A6B09497B681343ED
:1012E8004B6306E0064B5A6B7B68DB4304491340AB
:1012F8004B6300BF0C37BD465DF8047B704700BFE9
:101308000038024080B483B000AF78600B46FB70B1
:10131800FB78002B06D00A4B9A6B09497B6813436C
:101328008B6306E0064B9A6B7B68DB4304491340EA
:101338008B6300BF0C37BD465DF8047B704700BF68
:101348000038024080B483B000AF78600B46FB7071
:10135800FB78002B06D00A4B1A6C09497B681343AB
:101368000B6406E0064B1A6C7B68DB4304491340A8
:101378000B6400BF0C37BD465DF8047B704700BFA7
:101388000038024080B483B000AF78600B46FB7031
:10139800FB78002B06D00A4B5A6C09497B6813432B
:1013A8004B6406E0064B5A6C7B68DB4304491340E8
:1013B8004B6400BF0C37BD465DF8047B704700BF27
:1013C8000038024080B483B000AF78600B46FB70F1
:1013D800FB78002B06D00A4B1A6909497B6813432E
:1013E8000B6106E0064B1A697B68DB43044913402E
:1013F8000B6100BF0C37BD465DF8047B704700BF2A
:101408000038024080B483B000AF78600B46FB70B0
:10141800FB78002B06D00A4B5A6909497B681343AD
:101428004B6106E0064B5A697B68DB43044913406D
:101438004B6100BF0C37BD465DF8047B704700BFA9
:101448000038024080B483B000AF78600B46FB7070
:10145800FB78002B06D00A4B9A6909497B6813432D
:101468008B6106E0064B9A697B68DB4304491340AD
:101478008B6100BF0C37BD465DF8047B704700BF29
:101488000038024080B483B000AF78600B46FB7030
:10149800FB78002B06D00A4B1A6A09497B6813436C
:1014A8000B6206E0064B1A6A7B68DB43044913406B
:1014B8000B6200BF0C37BD465DF8047B704700BF68
:1014C8000038024080B483B000AF78600B46FB70F0
:1014D800FB78002B06D00A4B5A6A09497B681343EC
:1014E8004B6206E0064B5A6A7B68DB4304491340AB
:1014F8004B6200BF0C37BD465DF8047B704700BFE8
:101508000038024080B483B000AF78600B46FB70AF
:10151800FB78002B06D00A4B1A6D09497B681343E8
:101528000B6506E0064B1A6D7B68DB4304491340E4
:101538000B6500BF0C37BD465DF8047B704700BFE4
:101548000038024080B483B000AF78600B46FB706F
:10155800FB78002B06D00A4B5A6D09497B68134368
:101568004B6506E0064B5A6D7B68DB430449134024
:101578004B6500BF0C37BD465DF8047B704700BF64
:101588000038024080B483B000AF78600B46FB702F
:10159800FB78002B06D00A4B9A6D09497B681343E8
:1015A8008B6506E0064B9A6D7B68DB430449134064
:1015B8008B6500BF0C37BD465DF8047B704700BFE4
:1015C8000038024080B483B000AF78600B46FB70EF
:1015D800FB78002B06D00A4B1A6E09497B68134327
:1015E8000B6606E0064B1A6E7B68DB430449134022
:1015F8000B6600BF0C37BD465DF8047B704700BF23
:101608000038024080B483B000AF78600B46FB70AE
:10161800FB78002B06D00A4B5A6E09497B681343A6
:101628004B6606E0064B5A6E7B68DB430449134061
:101638004B6600BF0C37BD465DF8047B704700BFA2
:101648000038024080B483B000AF0346FB71FB79D9
:10165800012B06D1094B1B6F084A43F00803136797
:1016680005E0064B1B6F054A23F00803136700BF0C
:101678000C37BD465DF8047B704700BF0038024058
:1016880080B483B000AF03460A46FB711346BB71B2
:10169800BB79002B08D00C4B1B78DAB20A49FB79CE
:1016A8001343DBB20B7009E0074B1B78DAB2FB7906
:1016B800DB43DBB204491340DBB20B7000BF0C37CD
:1016C800BD465DF8047B70470D38024080B487B092
:1016D80000AF0346FB710023FB6000237B610023FE
:1016E800FB74FB795B09DBB2FB60FB68012B03D160
:1016F800124B1B687B6109E0FB68022B03D10F4B7F
:101708001B6F7B6102E00D4B5B6F7B61FB7903F024
:101718001F03FB607A69FB6822FA03F303F00103F5
:10172800002B02D00123FB7401E00023FB74FB7C37
:1017380018461C37BD465DF8047B704700380240E8
:1017480080B400AF054B5B6F044A43F08073536766
:1017580000BFBD465DF8047B704700BF00380240FB
:1017680080B485B000AF0346FB710023FB73094BBF
:10177800DA68FB791340002B02D00123FB7301E0E8
:101788000023FB73FB7B18461437BD465DF8047BCA
:10179800704700BF0038024080B483B000AF0346F2
:1017A800FB71044AFB79137000BF0C37BD465DF826
:1017B800047B70470E38024080B582B000AF01212B
:1017C8000820FFF75FFD4FF400533B6001233B7196
:1017D80002237B710023BB710023FB713B46194632
:1017E8001548FEF7D3FE01210820FFF74BFD4FF403
:1017F80080533B603B4619460F48FEF7C7FE012160
:101808000820FFF73FFD4FF480433B603B461946F5
:101818000948FEF7BBFE01210820FFF733FD4FF40E
:1018280000433B603B4619460348FEF7AFFE00BF46
:101838000837BD4680BD00BF000C024080B584B0AB
:1018480000AF03460A46FB711346BB71BB79012BF7
:101858000CBF01230023DBB2FB73FB79013B032B95
:101868002AD801A252F823F081180008911800081C
:10187800A1180008B1180008FB7B1A464FF4005164
:101888000F48FEF7BAFF17E0FB7B1A464FF480516A
:101898000B48FEF7B2FF0FE0FB7B1A464FF480417E
:1018A8000748FEF7AAFF07E0FB7B1A464FF4004102
:1018B8000348FEF7A2FF00BF00BF1037BD4680BD3A
:1018C800000C024080B500AFFFF776FFFFF718F86D
:1018D8000348FFF7CFF80248FFF792F8F8E700BF90
:1018E8000030014080B582B000AF78607B682E4A36
:1018F80093420AD101214FF48050FFF7E3FD002104
:101908004FF48050FFF7DEFD49E07B68274A934299
:101918000AD101214FF48040FFF7B4FD00214FF4B4
:101928008040FFF7AFFD3AE07B68214A93420AD135
:1019380001214FF40040FFF7A5FD00214FF40040BE
:10194800FFF7A0FD2BE07B681A4A93420AD10121D8
:101958004FF40050FFF7B6FD00214FF40050FFF799
:10196800B1FD1CE07B68144A93420AD101214FF46F
:101978008010FFF7A7FD00214FF48010FFF7A2FDAC
:101988000DE07B680D4A934209D101214FF4001004
:10199800FFF798FD00214FF40010FFF793FD00BFFB
:1019A8000837BD4680BD00BF003001400038004008
:1019B800003C004000340140005001400054014008
:1019C80080B485B000AF786039600023FB817B6804
:1019D8001B88FB81FB8903F44153FB813B681A8810
:1019E8003B685B8813439AB23B689B8813439AB25F
:1019F8003B68DB8813439AB23B681B8913439AB24E
:101A08003B685B8913439AB23B689B8913439AB23C
:101A18003B68DB8913439AB2FB891343FB817B68DC
:101A2800FA891A807B689B8B9BB223F400639AB275
:101A38007B689A833B681A8A7B681A8200BF1437CE
:101A4800BD465DF8047B704780B48BB000AF78600A
:101A580039600023FB820223FB840023BB8401231B
:101A68007B840023FB610023BB6100233B610023CF
:101A7800FB600023BB607B689B8B9BB223F47B637A
:101A880023F00F039AB27B689A837B6802221A8438
:101A98007B689B8BFB823B689B68022B04D10023ED
:101AA800BB840223FB8480E03B689B88002B02D127
:101AB80001237B8401E002237B84544B9B6803F45D
:101AC8000003002B05D0514B9B68504A23F40003B8
:101AD80093604E4BD3F884309B09C3F30803FB6033
:101AE8004A4BD3F884301B0F03F00703BB60474B06
:101AF8005B6803F03F033B61444B5B6803F480037E
:101B0800B3F5800F0BD1424A3B69B2FBF3F3FA6895
:101B180002FB03F2BB68B2FBF3F3BB610AE03D4A88
:101B28003B69B2FBF3F3FA6802FB03F2BB68B2FB52
:101B3800F3F3BB613B68DB88B3F5007F0FD1BB696A
:101B48001A0A13469B0013445B001A463B689B68BD
:101B5800B2FBF3F39BB205339BB2FB6112E07B8CC3
:101B68005B011A46BB69B3FBF2F213469B001344B0
:101B78005B001A463B689B68B2FBF3F39BB20533E4
:101B88009BB2FB61FB69244AA2FB0323DB08FB61D0
:101B9800FB699BB203F00103BB84BB8CFA69D31ABF
:101BA8005B08FB84BB8C1B02BB84FB8C012B02D91A
:101BB800FB8CFF2B03D90223FB840023BB843B68E7
:101BC800DA88BB8C13439AB2FB8C13439AB27B68B6
:101BD8001A843B681A883B6859883B6898883B6830
:101BE8009B8903439BB20B439BB213439AB2FB8A74
:101BF80013439BB243F40063FB827B68FA8A9A839F
:101C080000BF2C37BD465DF8047B704700380240A2
:101C180000127A000024F400CDCCCCCC80B483B080
:101C280000AF78607B6800221A807B6800225A80A7
:101C38007B6800229A807B680022DA807B68002219
:101C48001A817B6800225A817B6800229A817B680E
:101C58000022DA817B6807221A8200BF0C37BD4652
:101C68005DF8047B704780B483B000AF78607B6810
:101C780000221A807B6800225A807B6800229A80A2
:101C88007B680022DA807B6802229A607B680022E7
:101C98009A8100BF0C37BD465DF8047B704780B45D
:101CA80083B000AF78600B46FB70FB78002B08D040
:101CB8007B681B889BB243F040039AB27B681A800A
:101CC80007E07B681B889BB223F040039AB27B68CD
:101CD8001A8000BF0C37BD465DF8047B704780B49E
:101CE80083B000AF78600B46FB70FB78002B08D000
:101CF8007B689B8B9BB243F480639AB27B689A8320
:101D080007E07B689B8B9BB223F480639AB27B6865
:101D18009A8300BF0C37BD465DF8047B704780B4DA
:101D280083B000AF78600B467B807B681B889BB2D2
:101D380023F400639AB27B681A807B681B889AB286
:101D48007B8813439AB27B681A8000BF0C37BD4664
:101D58005DF8047B704780B483B000AF78600B46B1
:101D68007B807B88B3F5804F08D17B681B889BB24A
:101D780043F480439AB27B681A8007E07B681B882B
:101D88009BB223F480439AB27B681A8000BF0C3759
:101D9800BD465DF8047B704780B483B000AF7860BF
:101DA8000B467B807B884FF6FF62934208D07B68A6
:101DB8001B889BB243F480739AB27B681A8007E051
:101DC8007B681B889BB223F480739AB27B681A8065
:101DD80000BF0C37BD465DF8047B704780B483B004
:101DE80000AF78600B46FB70FB78002B08D07B684F
:101DF8009B889BB243F004039AB27B689A8007E001
:101E08007B689B889BB223F004039AB27B689A8014
:101E180000BF0C37BD465DF8047B704780B483B0C3
:101E280000AF78600B46FB70FB78002B08D07B680E
:101E38009B889BB243F010039AB27B689A8007E0B4
:101E48007B689B889BB223F010039AB27B689A80C8
:101E580000BF0C37BD465DF8047B704780B485B081
:101E680000AF786039600023BB810023FB817B6869
:101E78009B8B9BB223F47B6323F00F039AB27B689E
:101E88009A837B6802221A847B689B8BBB813B68A0
:101E98001B88B3F5007F03D03B681B88002B03D158
:101EA8004FF48073FB810BE03B681B88B3F5407FE0
:101EB80004D03B681B88B3F5807F01D10023FB81E8
:101EC8003B685A883B6899883B689B890B439BB25F
:101ED80013439AB2FB8913439AB2BB8913439BB24B
:101EE80043F40063BB817B68BA899A8300BF1437C7
:101EF800BD465DF8047B704780B483B000AF78605E
:101F08007B689B899BB218460C37BD465DF8047BFD
:101F1800704780B483B000AF78600B467B807B68E5
:101F28007A889A8100BF0C37BD465DF8047B7047FC
:101F380080B483B000AF78600B46FB70FB78002B51
:101F480008D07B681B889BB243F400539AB27B6825
:101F58001A8007E07B681B889BB223F400539AB26F
:101F68007B681A8000BF0C37BD465DF8047B70475C
:101F780080B483B000AF78607B681B889BB243F461
:101F880080539AB27B681A8000BF0C37BD465DF853
:101F9800047B704780B485B000AF78600B46FB7057
:101FA8000023FB81FB78012B03D07B681B8BFB8113
:101FB80002E07B689B8AFB81FB8918461437BD4683
:101FC8005DF8047B704780B483B000AF78607B68AD
:101FD8001B8A9BB218460C37BD465DF8047B7047D8
:101FE80080B483B000AF78600B467B8013467B706B
:101FF8007B78002B08D07B689B889AB27B88134338
:102008009AB27B689A8009E07B689B889AB27B8841
:10201800DB439BB213409AB27B689A8000BF0C37AF
:10202800BD465DF8047B704780B485B000AF78602A
:102038000B46FB701346BB700023FB810023BB815A
:10204800FB781B09DBB2FB81FB89012202FA03F34F
:10205800BB81BB78002B08D07B689B889AB2BB8970
:1020680013439AB27B689A8009E07B689B889AB28E
:10207800BB89DB439BB213409AB27B689A8000BF4E
:102088001437BD465DF8047B704780B485B000AF57
:1020980078600B467B800023FB737B681B899AB2B0
:1020A8007B8813409BB2002B02D00123FB7301E015
:1020B8000023FB73FB7B18461437BD465DF8047B91
:1020C800704780B483B000AF78600B467B807B8814
:1020D800DB439AB27B681A8100BF0C37BD465DF8B6
:1020E800047B704780B485B000AF78600B46FB7006
:1020F8000023FB730023BB8100237B8100233B81EA
:10210800FB7803F00F03012202FA03F3BB81FB788B
:102118001B09DBB27B817B89012202FA03F37B81F5
:102128007B689B889AB27B8913403B817B681B89BB
:102138009AB2BB8913409BB2002B05D03B89002B78
:1021480002D00123FB7301E00023FB73FB7B1846DD
:102158001437BD465DF8047B704780B485B000AF86
:1021680078600B46FB700023FB81FB7803F00F03BC
:10217800012202FA03F3FB81FB89DB439AB27B68F5
:102188001A8100BF1437BD465DF8047B704700BF55
:10219800002103E00B4B5B58435004310A480B4BBA
:1021A80042189A42F6D30A4A02E0002342F8043B56
:1021B800084B9A42F9D3FEF703F800F00FF8FFF73F
:1021C80081FB7047342300080000002054040020DD
:1021D8005404002098040020FEE7000070B50D4E5E
:1021E8000D4D761BB61006D0002455F8043B01347B
:1021F8009847A642F9D1094E094D761B00F084F89C
:10220800B61006D0002455F8043B01349847A6427E
:10221800F9D170BD282300082823000830230008BE
:1022280028230008024B13B1024800F005B8704794
:10223800000000004D220008002301461A461846F7
:1022480000F01AB838B5084B084D5B1B9C1007D036
:10225800043B1D44013C55F804399847002CF9D13A
:10226800BDE8384000F056B8342300083023000891
:10227800704700BF704700BF2DE9F047DFF880A026
:102288000646DAF8000098460F469146FFF7F0FF39
:102298001A4B1B68D3F8484124B365681F2D26DC08
:1022A8005EB9AB1C0135DAF80000656044F82370AC
:1022B800FFF7E0FF0020BDE8F08704EB850301216C
:1022C800C3F88890D4F88821A9400A43022EC4F89C
:1022D8008821C3F80881E4D1D4F88C311943C4F8B3
:1022E8008C11DEE703F5A674C3F84841D5E7DAF8A0
:1022F8000000FFF7BFFF4FF0FF30DCE70C230008BA
:102308005004002028000020F8B500BFF8BC08BC25
:102318009E467047F8B500BFF8BC08BC9E4670479B
:082328002D220008AD010008A0
:042330008901000817
:10233400007A030A00000000000000000102030408
:102344000607080900000000010203040102030457
:102354000607080900000000000000001403002024
:102364007C030020E40300200000000000000000C3
:102374000000000000000000000000000000000059
:102384000000000000000000000000000000000049
:102394000000000000000000000000000000000039
:1023A4000000000000000000000000000000000029
:1023B4000000000000000000000000000000000019
:1023C4000000000000000000000000000000000009
:1023D40000000000000000000000000000000000F9
:1023E40000000000000000000000000000000000E9
:1023F40000000000000000000000000000000000D9
:1024040001000000000000000E33CDAB34126DE675
:10241400ECDE05000B0000000000000000000000DE
:1024240000000000000000000000000000000000A8
:102434000000000000000000000000000000000098
:102444000000000000000000000000000000000088
:102454000000000000000000000000000000000078
:0427840074040020B9
:040000050800219935
:00000001FF
